:1000000000308A0057280000303084008313000835
:10001000031918280130F800F701F70B0D28F80B29
:100020000C284A30F700F70B13281628800B0A28F3
:1000300008003208F8013102031821283108F700BE
:100040002D28F7010830B300B10DF70D3208770203
:100050000318F700F80DB30B24288A110A12DF28C1
:10006000F701F8012F0803103018F707F70CF80C08
:10007000B018F707F70CF80C3019F707F70CF80C65
:10008000B019F707F70CF80C301AF707F70CF80C53
:10009000B01AF707F70CF80C301BF707F70CF80C41
:1000A000B01BF707F70CF80C8A110A12692903082C
:1000B0001F39830083161F149F141F159F110730CB
:1000C0009C008313860183128601831685018312A7
:1000D0008501FF30831685008601FF30850083127D
:1000E00005083F39A1008316860183122108860086
:1000F0001430AF00FA30B0000420AF0B7A2821088A
:1001000003199228013A0319B028033A0319E72882
:10011000013A03191829073A03192D29013A03193D
:1001200053297329A2012208073C031CAF28013080
:10013000AF002208F8000319A1280310AF0DF80B37
:100140009D288316860183122F0886000230AF0097
:10015000FA30B0000420AF0BA828A20A9328732914
:10016000FF3083168500831205083F39A30008304D
:10017000AF00FA30B0000420AF0BB928FF3083166F
:100180008500831205083F39A4000830AF00FA301B
:10019000B0000420AF0BC728FF3083168500831200
:1001A00005083F39A50083168601831286012408BD
:1001B00023072507B000B1000330B20019287808E2
:1001C000A600831686018312260886007329A701DC
:1001D000FF3083168500831205083F39A300643081
:1001E000B0000420FF3083168500831205083F39D4
:1001F000A4006430B0000420FF3083168500831211
:1002000005083F39A5002408230203180A292408F9
:10021000A7000C292308A700250827020318122984
:100220002508A700831686018312270886007329F4
:10023000A80128085A3C031C2C2983168601831226
:10024000220886000230AF00FA30B0000420AF0B65
:1002500024290230A80719297329FF308316850045
:10026000831205083F39A9006430B0000420FF3034
:1002700083168500831205083F39AA002908AB00C0
:100280002B082A02031C5229831686018312220896
:1002900086000230AF00FA30B0000420AF0B4B29CB
:1002A000AB0A40297329FF308316850083120508A5
:1002B0000F39AC006430B0000420FF308316850095
:1002C000831205080F39AD002C08AF002C08B000D0
:1002D000302803102D0D7802AE008316860183129C
:0C02E0002E088600732983166D28630029
:02400E00713F00
:00000001FF
;PIC16F877A
;CRC=428E  CREATED="03-Sep-23 21:59"
